{
  "_format": "hh-sol-artifact-1",
  "contractName": "EntryPoint",
  "sourceName": "contracts/EntryPoint.sol",
  "abi": [
    {
      "inputs": [
        {
          "internalType": "address",
          "name": "_create2factory",
          "type": "address"
        },
        {
          "internalType": "uint256",
          "name": "_paymasterStake",
          "type": "uint256"
        },
        {
          "internalType": "uint32",
          "name": "_unstakeDelaySec",
          "type": "uint32"
        }
      ],
      "stateMutability": "nonpayable",
      "type": "constructor"
    },
    {
      "inputs": [
        {
          "internalType": "uint256",
          "name": "opIndex",
          "type": "uint256"
        },
        {
          "internalType": "address",
          "name": "paymaster",
          "type": "address"
        },
        {
          "internalType": "string",
          "name": "reason",
          "type": "string"
        }
      ],
      "name": "FailedOp",
      "type": "error"
    },
    {
      "anonymous": false,
      "inputs": [
        {
          "indexed": true,
          "internalType": "address",
          "name": "account",
          "type": "address"
        },
        {
          "indexed": false,
          "internalType": "uint256",
          "name": "totalDeposit",
          "type": "uint256"
        }
      ],
      "name": "Deposited",
      "type": "event"
    },
    {
      "anonymous": false,
      "inputs": [
        {
          "indexed": true,
          "internalType": "address",
          "name": "account",
          "type": "address"
        },
        {
          "indexed": false,
          "internalType": "uint256",
          "name": "totalStaked",
          "type": "uint256"
        },
        {
          "indexed": false,
          "internalType": "uint256",
          "name": "withdrawTime",
          "type": "uint256"
        }
      ],
      "name": "StakeLocked",
      "type": "event"
    },
    {
      "anonymous": false,
      "inputs": [
        {
          "indexed": true,
          "internalType": "address",
          "name": "account",
          "type": "address"
        },
        {
          "indexed": false,
          "internalType": "uint256",
          "name": "withdrawTime",
          "type": "uint256"
        }
      ],
      "name": "StakeUnlocked",
      "type": "event"
    },
    {
      "anonymous": false,
      "inputs": [
        {
          "indexed": true,
          "internalType": "address",
          "name": "account",
          "type": "address"
        },
        {
          "indexed": false,
          "internalType": "address",
          "name": "withdrawAddress",
          "type": "address"
        },
        {
          "indexed": false,
          "internalType": "uint256",
          "name": "amount",
          "type": "uint256"
        }
      ],
      "name": "StakeWithdrawn",
      "type": "event"
    },
    {
      "anonymous": false,
      "inputs": [
        {
          "indexed": true,
          "internalType": "bytes32",
          "name": "requestId",
          "type": "bytes32"
        },
        {
          "indexed": true,
          "internalType": "address",
          "name": "sender",
          "type": "address"
        },
        {
          "indexed": true,
          "internalType": "address",
          "name": "paymaster",
          "type": "address"
        },
        {
          "indexed": false,
          "internalType": "uint256",
          "name": "nonce",
          "type": "uint256"
        },
        {
          "indexed": false,
          "internalType": "uint256",
          "name": "actualGasCost",
          "type": "uint256"
        },
        {
          "indexed": false,
          "internalType": "uint256",
          "name": "actualGasPrice",
          "type": "uint256"
        },
        {
          "indexed": false,
          "internalType": "bool",
          "name": "success",
          "type": "bool"
        }
      ],
      "name": "UserOperationEvent",
      "type": "event"
    },
    {
      "anonymous": false,
      "inputs": [
        {
          "indexed": true,
          "internalType": "bytes32",
          "name": "requestId",
          "type": "bytes32"
        },
        {
          "indexed": true,
          "internalType": "address",
          "name": "sender",
          "type": "address"
        },
        {
          "indexed": false,
          "internalType": "uint256",
          "name": "nonce",
          "type": "uint256"
        },
        {
          "indexed": false,
          "internalType": "bytes",
          "name": "revertReason",
          "type": "bytes"
        }
      ],
      "name": "UserOperationRevertReason",
      "type": "event"
    },
    {
      "anonymous": false,
      "inputs": [
        {
          "indexed": true,
          "internalType": "address",
          "name": "account",
          "type": "address"
        },
        {
          "indexed": false,
          "internalType": "address",
          "name": "withdrawAddress",
          "type": "address"
        },
        {
          "indexed": false,
          "internalType": "uint256",
          "name": "amount",
          "type": "uint256"
        }
      ],
      "name": "Withdrawn",
      "type": "event"
    },
    {
      "inputs": [
        {
          "internalType": "uint32",
          "name": "_unstakeDelaySec",
          "type": "uint32"
        }
      ],
      "name": "addStake",
      "outputs": [],
      "stateMutability": "payable",
      "type": "function"
    },
    {
      "inputs": [
        {
          "internalType": "address",
          "name": "account",
          "type": "address"
        }
      ],
      "name": "balanceOf",
      "outputs": [
        {
          "internalType": "uint256",
          "name": "",
          "type": "uint256"
        }
      ],
      "stateMutability": "view",
      "type": "function"
    },
    {
      "inputs": [],
      "name": "create2factory",
      "outputs": [
        {
          "internalType": "address",
          "name": "",
          "type": "address"
        }
      ],
      "stateMutability": "view",
      "type": "function"
    },
    {
      "inputs": [
        {
          "internalType": "address",
          "name": "account",
          "type": "address"
        }
      ],
      "name": "depositTo",
      "outputs": [],
      "stateMutability": "payable",
      "type": "function"
    },
    {
      "inputs": [
        {
          "internalType": "address",
          "name": "",
          "type": "address"
        }
      ],
      "name": "deposits",
      "outputs": [
        {
          "internalType": "uint112",
          "name": "deposit",
          "type": "uint112"
        },
        {
          "internalType": "bool",
          "name": "staked",
          "type": "bool"
        },
        {
          "internalType": "uint112",
          "name": "stake",
          "type": "uint112"
        },
        {
          "internalType": "uint32",
          "name": "unstakeDelaySec",
          "type": "uint32"
        },
        {
          "internalType": "uint64",
          "name": "withdrawTime",
          "type": "uint64"
        }
      ],
      "stateMutability": "view",
      "type": "function"
    },
    {
      "inputs": [
        {
          "internalType": "address",
          "name": "account",
          "type": "address"
        }
      ],
      "name": "getDepositInfo",
      "outputs": [
        {
          "components": [
            {
              "internalType": "uint112",
              "name": "deposit",
              "type": "uint112"
            },
            {
              "internalType": "bool",
              "name": "staked",
              "type": "bool"
            },
            {
              "internalType": "uint112",
              "name": "stake",
              "type": "uint112"
            },
            {
              "internalType": "uint32",
              "name": "unstakeDelaySec",
              "type": "uint32"
            },
            {
              "internalType": "uint64",
              "name": "withdrawTime",
              "type": "uint64"
            }
          ],
          "internalType": "struct StakeManager.DepositInfo",
          "name": "info",
          "type": "tuple"
        }
      ],
      "stateMutability": "view",
      "type": "function"
    },
    {
      "inputs": [
        {
          "components": [
            {
              "internalType": "address",
              "name": "sender",
              "type": "address"
            },
            {
              "internalType": "uint256",
              "name": "nonce",
              "type": "uint256"
            },
            {
              "internalType": "bytes",
              "name": "initCode",
              "type": "bytes"
            },
            {
              "internalType": "bytes",
              "name": "callData",
              "type": "bytes"
            },
            {
              "internalType": "uint256",
              "name": "callGas",
              "type": "uint256"
            },
            {
              "internalType": "uint256",
              "name": "verificationGas",
              "type": "uint256"
            },
            {
              "internalType": "uint256",
              "name": "preVerificationGas",
              "type": "uint256"
            },
            {
              "internalType": "uint256",
              "name": "maxFeePerGas",
              "type": "uint256"
            },
            {
              "internalType": "uint256",
              "name": "maxPriorityFeePerGas",
              "type": "uint256"
            },
            {
              "internalType": "address",
              "name": "paymaster",
              "type": "address"
            },
            {
              "internalType": "bytes",
              "name": "paymasterData",
              "type": "bytes"
            },
            {
              "internalType": "bytes",
              "name": "signature",
              "type": "bytes"
            }
          ],
          "internalType": "struct UserOperation",
          "name": "userOp",
          "type": "tuple"
        }
      ],
      "name": "getRequestId",
      "outputs": [
        {
          "internalType": "bytes32",
          "name": "",
          "type": "bytes32"
        }
      ],
      "stateMutability": "view",
      "type": "function"
    },
    {
      "inputs": [
        {
          "internalType": "bytes",
          "name": "initCode",
          "type": "bytes"
        },
        {
          "internalType": "uint256",
          "name": "salt",
          "type": "uint256"
        }
      ],
      "name": "getSenderAddress",
      "outputs": [
        {
          "internalType": "address",
          "name": "",
          "type": "address"
        }
      ],
      "stateMutability": "view",
      "type": "function"
    },
    {
      "inputs": [
        {
          "internalType": "address",
          "name": "sender",
          "type": "address"
        }
      ],
      "name": "getSenderStorage",
      "outputs": [
        {
          "internalType": "uint256[]",
          "name": "senderStorageCells",
          "type": "uint256[]"
        }
      ],
      "stateMutability": "view",
      "type": "function"
    },
    {
      "inputs": [
        {
          "components": [
            {
              "internalType": "address",
              "name": "sender",
              "type": "address"
            },
            {
              "internalType": "uint256",
              "name": "nonce",
              "type": "uint256"
            },
            {
              "internalType": "bytes",
              "name": "initCode",
              "type": "bytes"
            },
            {
              "internalType": "bytes",
              "name": "callData",
              "type": "bytes"
            },
            {
              "internalType": "uint256",
              "name": "callGas",
              "type": "uint256"
            },
            {
              "internalType": "uint256",
              "name": "verificationGas",
              "type": "uint256"
            },
            {
              "internalType": "uint256",
              "name": "preVerificationGas",
              "type": "uint256"
            },
            {
              "internalType": "uint256",
              "name": "maxFeePerGas",
              "type": "uint256"
            },
            {
              "internalType": "uint256",
              "name": "maxPriorityFeePerGas",
              "type": "uint256"
            },
            {
              "internalType": "address",
              "name": "paymaster",
              "type": "address"
            },
            {
              "internalType": "bytes",
              "name": "paymasterData",
              "type": "bytes"
            },
            {
              "internalType": "bytes",
              "name": "signature",
              "type": "bytes"
            }
          ],
          "internalType": "struct UserOperation[]",
          "name": "ops",
          "type": "tuple[]"
        },
        {
          "internalType": "address payable",
          "name": "beneficiary",
          "type": "address"
        }
      ],
      "name": "handleOps",
      "outputs": [],
      "stateMutability": "nonpayable",
      "type": "function"
    },
    {
      "inputs": [
        {
          "components": [
            {
              "internalType": "address",
              "name": "sender",
              "type": "address"
            },
            {
              "internalType": "uint256",
              "name": "nonce",
              "type": "uint256"
            },
            {
              "internalType": "bytes",
              "name": "initCode",
              "type": "bytes"
            },
            {
              "internalType": "bytes",
              "name": "callData",
              "type": "bytes"
            },
            {
              "internalType": "uint256",
              "name": "callGas",
              "type": "uint256"
            },
            {
              "internalType": "uint256",
              "name": "verificationGas",
              "type": "uint256"
            },
            {
              "internalType": "uint256",
              "name": "preVerificationGas",
              "type": "uint256"
            },
            {
              "internalType": "uint256",
              "name": "maxFeePerGas",
              "type": "uint256"
            },
            {
              "internalType": "uint256",
              "name": "maxPriorityFeePerGas",
              "type": "uint256"
            },
            {
              "internalType": "address",
              "name": "paymaster",
              "type": "address"
            },
            {
              "internalType": "bytes",
              "name": "paymasterData",
              "type": "bytes"
            },
            {
              "internalType": "bytes",
              "name": "signature",
              "type": "bytes"
            }
          ],
          "internalType": "struct UserOperation",
          "name": "op",
          "type": "tuple"
        },
        {
          "components": [
            {
              "internalType": "bytes32",
              "name": "requestId",
              "type": "bytes32"
            },
            {
              "internalType": "uint256",
              "name": "prefund",
              "type": "uint256"
            },
            {
              "internalType": "enum EntryPoint.PaymentMode",
              "name": "paymentMode",
              "type": "uint8"
            },
            {
              "internalType": "uint256",
              "name": "contextOffset",
              "type": "uint256"
            },
            {
              "internalType": "uint256",
              "name": "preOpGas",
              "type": "uint256"
            }
          ],
          "internalType": "struct EntryPoint.UserOpInfo",
          "name": "opInfo",
          "type": "tuple"
        },
        {
          "internalType": "bytes",
          "name": "context",
          "type": "bytes"
        }
      ],
      "name": "innerHandleOp",
      "outputs": [
        {
          "internalType": "uint256",
          "name": "actualGasCost",
          "type": "uint256"
        }
      ],
      "stateMutability": "nonpayable",
      "type": "function"
    },
    {
      "inputs": [],
      "name": "paymasterStake",
      "outputs": [
        {
          "internalType": "uint256",
          "name": "",
          "type": "uint256"
        }
      ],
      "stateMutability": "view",
      "type": "function"
    },
    {
      "inputs": [
        {
          "components": [
            {
              "internalType": "address",
              "name": "sender",
              "type": "address"
            },
            {
              "internalType": "uint256",
              "name": "nonce",
              "type": "uint256"
            },
            {
              "internalType": "bytes",
              "name": "initCode",
              "type": "bytes"
            },
            {
              "internalType": "bytes",
              "name": "callData",
              "type": "bytes"
            },
            {
              "internalType": "uint256",
              "name": "callGas",
              "type": "uint256"
            },
            {
              "internalType": "uint256",
              "name": "verificationGas",
              "type": "uint256"
            },
            {
              "internalType": "uint256",
              "name": "preVerificationGas",
              "type": "uint256"
            },
            {
              "internalType": "uint256",
              "name": "maxFeePerGas",
              "type": "uint256"
            },
            {
              "internalType": "uint256",
              "name": "maxPriorityFeePerGas",
              "type": "uint256"
            },
            {
              "internalType": "address",
              "name": "paymaster",
              "type": "address"
            },
            {
              "internalType": "bytes",
              "name": "paymasterData",
              "type": "bytes"
            },
            {
              "internalType": "bytes",
              "name": "signature",
              "type": "bytes"
            }
          ],
          "internalType": "struct UserOperation",
          "name": "userOp",
          "type": "tuple"
        }
      ],
      "name": "simulateValidation",
      "outputs": [
        {
          "internalType": "uint256",
          "name": "preOpGas",
          "type": "uint256"
        },
        {
          "internalType": "uint256",
          "name": "prefund",
          "type": "uint256"
        }
      ],
      "stateMutability": "nonpayable",
      "type": "function"
    },
    {
      "inputs": [],
      "name": "unlockStake",
      "outputs": [],
      "stateMutability": "nonpayable",
      "type": "function"
    },
    {
      "inputs": [],
      "name": "unstakeDelaySec",
      "outputs": [
        {
          "internalType": "uint32",
          "name": "",
          "type": "uint32"
        }
      ],
      "stateMutability": "view",
      "type": "function"
    },
    {
      "inputs": [
        {
          "internalType": "address payable",
          "name": "withdrawAddress",
          "type": "address"
        }
      ],
      "name": "withdrawStake",
      "outputs": [],
      "stateMutability": "nonpayable",
      "type": "function"
    },
    {
      "inputs": [
        {
          "internalType": "address payable",
          "name": "withdrawAddress",
          "type": "address"
        },
        {
          "internalType": "uint256",
          "name": "withdrawAmount",
          "type": "uint256"
        }
      ],
      "name": "withdrawTo",
      "outputs": [],
      "stateMutability": "nonpayable",
      "type": "function"
    },
    {
      "stateMutability": "payable",
      "type": "receive"
    }
  ],
  "bytecode": "0x60e06040523480156200001157600080fd5b5060405162002d5738038062002d5783398101604081905262000034916200015d565b63ffffffff811660805260a08290526001600160a01b0383166200009f5760405162461bcd60e51b815260206004820152601660248201527f696e76616c69642063726561746532666163746f72790000000000000000000060448201526064015b60405180910390fd5b60008163ffffffff1611620000f75760405162461bcd60e51b815260206004820152601460248201527f696e76616c696420756e7374616b6544656c6179000000000000000000000000604482015260640162000096565b60008211620001495760405162461bcd60e51b815260206004820152601660248201527f696e76616c6964207061796d61737465725374616b6500000000000000000000604482015260640162000096565b50506001600160a01b031660c052620001b8565b6000806000606084860312156200017357600080fd5b83516001600160a01b03811681146200018b57600080fd5b60208501516040860151919450925063ffffffff81168114620001ad57600080fd5b809150509250925092565b60805160a05160c051612b53620002046000396000818161014c015281816104c10152611f7201526000818161019d015261077e01526000818161025401526106850152612b536000f3fe6080604052600436106101125760003560e01c80635287ce12116100a5578063bb9fe6bf11610074578063c31e435411610059578063c31e435414610473578063ec8b5dbf14610522578063fc7e286d1461054f57600080fd5b8063bb9fe6bf1461043e578063c23a5cea1461045357600080fd5b80635287ce12146102ab57806370a08231146103cc578063887994261461040b578063b760faf91461042b57600080fd5b8063205c2878116100e1578063205c2878146102025780632815c17b14610222578063390b9978146102425780634baeaf8a1461028b57600080fd5b80630396cb60146101275780630bfb68471461013a57806317c6a9871461018b5780631a1c1141146101cd57600080fd5b366101225761012033610608565b005b600080fd5b61012061013536600461215d565b61066f565b34801561014657600080fd5b5061016e7f000000000000000000000000000000000000000000000000000000000000000081565b6040516001600160a01b0390911681526020015b60405180910390f35b34801561019757600080fd5b506101bf7f000000000000000000000000000000000000000000000000000000000000000081565b604051908152602001610182565b3480156101d957600080fd5b506101ed6101e836600461219c565b610976565b60408051928352602083019190915201610182565b34801561020e57600080fd5b5061012061021d3660046121e6565b610a33565b34801561022e57600080fd5b5061012061023d366004612212565b610c03565b34801561024e57600080fd5b506102767f000000000000000000000000000000000000000000000000000000000000000081565b60405163ffffffff9091168152602001610182565b34801561029757600080fd5b506101bf6102a636600461219c565b610e89565b3480156102b757600080fd5b506103726102c63660046122a8565b6040805160a081018252600080825260208201819052918101829052606081018290526080810191909152506001600160a01b031660009081526020818152604091829020825160a08101845281546001600160701b038082168352600160701b820460ff16151594830194909452600160781b90049092169282019290925260019091015463ffffffff81166060830152640100000000900467ffffffffffffffff16608082015290565b6040805182516001600160701b03908116825260208085015115159083015283830151169181019190915260608083015163ffffffff169082015260809182015167ffffffffffffffff169181019190915260a001610182565b3480156103d857600080fd5b506101bf6103e73660046122a8565b6001600160a01b03166000908152602081905260409020546001600160701b031690565b34801561041757600080fd5b506101bf6104263660046122c5565b610ecb565b6101206104393660046122a8565b610608565b34801561044a57600080fd5b5061012061103a565b34801561045f57600080fd5b5061012061046e3660046122a8565b61115b565b34801561047f57600080fd5b5061016e61048e3660046123df565b8151602092830120604080517fff00000000000000000000000000000000000000000000000000000000000000818601527f000000000000000000000000000000000000000000000000000000000000000060601b6bffffffffffffffffffffffff191660218201526035810193909352605580840192909252805180840390920182526075909201909152805191012090565b34801561052e57600080fd5b5061054261053d3660046122a8565b6113b7565b6040516101829190612469565b34801561055b57600080fd5b506105c061056a3660046122a8565b600060208190529081526040902080546001909101546001600160701b0380831692600160701b810460ff1692600160781b9091049091169063ffffffff811690640100000000900467ffffffffffffffff1685565b604080516001600160701b0396871681529415156020860152929094169183019190915263ffffffff16606082015267ffffffffffffffff909116608082015260a001610182565b610612813461141d565b6001600160a01b03811660008181526020818152604091829020805492516001600160701b03909316835292917f2da466a7b24304f47e87fa2e1e5a81b9831ce54fec19055ce277ca2f39ba42c491015b60405180910390a25050565b33600090815260208190526040902063ffffffff7f0000000000000000000000000000000000000000000000000000000000000000811690831610156106fc5760405162461bcd60e51b815260206004820152601560248201527f756e7374616b652064656c617920746f6f206c6f77000000000000000000000060448201526064015b60405180910390fd5b600181015463ffffffff908116908316101561075a5760405162461bcd60e51b815260206004820152601c60248201527f63616e6e6f7420646563726561736520756e7374616b652074696d650000000060448201526064016106f3565b805460009061077a903490600160781b90046001600160701b03166124c3565b90507f00000000000000000000000000000000000000000000000000000000000000008110156107ec5760405162461bcd60e51b815260206004820152601360248201527f7374616b652076616c756520746f6f206c6f770000000000000000000000000060448201526064016106f3565b6001600160701b0381106108425760405162461bcd60e51b815260206004820152600e60248201527f7374616b65206f766572666c6f7700000000000000000000000000000000000060448201526064016106f3565b6040805160a08101825283546001600160701b0390811682526001602080840182815286841685870190815263ffffffff808b16606088019081526000608089018181523380835296829052908a902098518954955194518916600160781b027fffffff0000000000000000000000000000ffffffffffffffffffffffffffffff951515600160701b026effffffffffffffffffffffffffffff199097169190991617949094179290921695909517865551949092018054925167ffffffffffffffff16640100000000026bffffffffffffffffffffffff19909316949093169390931717905590517fa5ae833d0bb1dcd632d98a8b70973e8516812898e19bf27b70071ebc8dc52c0190610969908490879091825263ffffffff16602082015260400190565b60405180910390a2505050565b60008060005a9050600061098985610e89565b9050610997600086836114cd565b509093505060c08501355a6109ac90846124db565b6109b691906124c3565b93503315610a2c5760405162461bcd60e51b815260206004820152602c60248201527f6d7573742062652063616c6c6564206f66662d636861696e207769746820667260448201527f6f6d3d7a65726f2d61646472000000000000000000000000000000000000000060648201526084016106f3565b5050915091565b3360009081526020818152604091829020825160a08101845281546001600160701b03808216808452600160701b830460ff16151595840195909552600160781b90910416938101939093526001015463ffffffff81166060840152640100000000900467ffffffffffffffff166080830152821115610af55760405162461bcd60e51b815260206004820152601960248201527f576974686472617720616d6f756e7420746f6f206c617267650000000000000060448201526064016106f3565b8051610b0b9083906001600160701b03166124db565b6001600160701b03168152604080516001600160a01b03851681526020810184905233917fd1c19fbcd4551a5edfb66d43d2e337c04837afda3482b42bdf569a8fccdae5fb910160405180910390a26000836001600160a01b03168360405160006040518083038185875af1925050503d8060008114610ba7576040519150601f19603f3d011682016040523d82523d6000602084013e610bac565b606091505b5050905080610bfd5760405162461bcd60e51b815260206004820152601260248201527f6661696c656420746f207769746864726177000000000000000000000000000060448201526064016106f3565b50505050565b8160008167ffffffffffffffff811115610c1f57610c1f612374565b604051908082528060200260200182016040528015610c8257816020015b610c6f6040805160a0810182526000808252602082018190529091820190815260200160008152602001600081525090565b815260200190600190039081610c3d5790505b50905060005b82811015610d575760005a905036878784818110610ca857610ca86124f2565b9050602002810190610cba9190612508565b90506060600080610cca84610e89565b9050600080610cda8887856114cd565b6040805160a08101825287815260208101859052919850889750929450909250908101826001811115610d0f57610d0f612529565b81526020018581526020018760c001355a8a0301815250898981518110610d3857610d386124f2565b6020026020010181905250505050505050508080600101915050610c88565b506000805b85811015610e765760005a905036888884818110610d7c57610d7c6124f2565b9050602002810190610d8e9190612508565b90506000858481518110610da457610da46124f2565b602090810291909101015160608101516040517f887994260000000000000000000000000000000000000000000000000000000081529192509081903090638879942690610dfa9087908790869060040161271f565b6020604051808303816000875af1925050508015610e35575060408051601f3d908101601f19168201909252610e329181019061278f565b60015b610e5f57600083608001515a8703019050610e5587600287878686611647565b8801975050610e65565b96909601955b505060019093019250610d5c915050565b50610e818482611961565b505050505050565b6000610e9482611a1c565b6040805160208101929092523090820152466060820152608001604051602081830303815290604052805190602001209050919050565b6000805a9050333014610edd57600080fd5b600080610eed60608901896127a8565b90501115610fcd5760008088356001600160a01b031660808a0135610f1560608c018c6127a8565b604051610f239291906127ef565b60006040518083038160008787f1925050503d8060008114610f61576040519150601f19603f3d011682016040523d82523d6000602084013e610f66565b606091505b509150915081610fca57805115610fc55788356001600160a01b031688600001357f1c4fada7374c0a9ee8841fc38afe82932dc0f8e69012e927f061a8bae611a2018b6020013584604051610fbc9291906127ff565b60405180910390a35b600192505b50505b600086608001355a840301905061102e6000838a610ff0368c90038c018c612818565b8a8a8080601f016020809104026020016040519081016040528093929190818152602001838380828437600092019190915250899250611647915050565b98975050505050505050565b336000908152602081905260409020600181015463ffffffff166110705760405162461bcd60e51b81526004016106f390612894565b8054600160701b900460ff166110c85760405162461bcd60e51b815260206004820152601160248201527f616c726561647920756e7374616b696e6700000000000000000000000000000060448201526064016106f3565b60018101546000906110e09063ffffffff16426128c4565b6001830180546bffffffffffffffff00000000191664010000000067ffffffffffffffff84169081029190911790915583546eff00000000000000000000000000001916845560405190815290915033907ffa9b3c14cc825c412c9ed81b3ba365a5b459439403f18829e572ed53a4180f0a90602001610663565b3360009081526020819052604090208054600160781b90046001600160701b0316806111c95760405162461bcd60e51b815260206004820152601460248201527f4e6f207374616b6520746f20776974686472617700000000000000000000000060448201526064016106f3565b6001820154640100000000900467ffffffffffffffff1661122c5760405162461bcd60e51b815260206004820152601d60248201527f6d7573742063616c6c20756e6c6f636b5374616b65282920666972737400000060448201526064016106f3565b60018201544264010000000090910467ffffffffffffffff1611156112935760405162461bcd60e51b815260206004820152601b60248201527f5374616b65207769746864726177616c206973206e6f7420647565000000000060448201526064016106f3565b6001820180546bffffffffffffffffffffffff1916905581547fffffff0000000000000000000000000000ffffffffffffffffffffffffffffff168255604080516001600160a01b03851681526020810183905233917fb7c918e0e249f999e965cafeb6c664271b3f4317d296461500e71da39f0cbda3910160405180910390a26000836001600160a01b03168260405160006040518083038185875af1925050503d8060008114611361576040519150601f19603f3d011682016040523d82523d6000602084013e611366565b606091505b5050905080610bfd5760405162461bcd60e51b815260206004820152601860248201527f6661696c656420746f207769746864726177207374616b65000000000000000060448201526064016106f3565b6001600160a01b0381166000908152602081905260409081902081516001808252818401909352606092829190816020016020820280368337019050509250818360008151811061140a5761140a6124f2565b6020026020010181815250505050919050565b6001600160a01b0382166000908152602081905260408120805490919061144e9084906001600160701b03166124c3565b90506001600160701b038111156114a75760405162461bcd60e51b815260206004820152601060248201527f6465706f736974206f766572666c6f770000000000000000000000000000000060448201526064016106f3565b81546dffffffffffffffffffffffffffff19166001600160701b03919091161790555050565b600080606060005a905060c086013560a08701351760808701351760e087013517610100870135176effffffffffffffffffffffffffffff8111156115545760405162461bcd60e51b815260206004820152601360248201527f6761732076616c756573206f766572666c6f770000000000000000000000000060448201526064016106f3565b600061155f88611a35565b90965094506115718989898989611a61565b905043600086600181111561158857611588612529565b14156115a25761159b8a8a8a8a86611c8a565b94506115b5565b6040518060200160405280600081525094505b60005a85039050808a60a001351015611639578a6115db6101408c016101208d016122a8565b60405162fa072b60e01b815260048101929092526001600160a01b0316602482015260606044820152601e60648201527f55736564206d6f7265207468616e20766572696669636174696f6e4761730000608482015260a4016106f3565b505050505093509350939050565b6000805a9050600061165887611ea2565b905060008061166f6101408a016101208b016122a8565b90506001600160a01b038116611688578835915061182d565b80915060008751111561182d57858302945060028a60028111156116ae576116ae612529565b146117215760405163a9a2340960e01b81526001600160a01b0382169063a9a234099060a08c0135906116e9908e908c908b906004016128f0565b600060405180830381600088803b15801561170357600080fd5b5087f1158015611717573d6000803e3d6000fd5b505050505061182d565b60405163a9a2340960e01b81526001600160a01b0382169063a9a234099060a08c013590611757908e908c908b906004016128f0565b600060405180830381600088803b15801561177157600080fd5b5087f193505050508015611783575060015b61182d5761178f612929565b806308c379a014156117cd57506117a4612945565b806117af57506117cf565b8b828260405162fa072b60e01b81526004016106f3939291906129cf565b505b60405162fa072b60e01b8152600481018c90526001600160a01b038216602482015260606044820152600d60648201527f706f73744f702072657665727400000000000000000000000000000000000000608482015260a4016106f3565b5a840386019550828602945084886020015110156118a35760405162fa072b60e01b8152600481018c90526001600160a01b038216602482015260606044820152601b60648201527f70726566756e642062656c6f772061637475616c476173436f73740000000000608482015260a4016106f3565b60208801518590036118b5838261141d565b6000808c60028111156118ca576118ca612529565b1490506118df6101408c016101208d016122a8565b6001600160a01b03168b356001600160a01b03168b600001517f33fd4d1f25a5461bea901784a6571de6debc16cd0831932c22c6969cd73ba9948e602001358b8a876040516119499493929190938452602084019290925260408301521515606082015260800190565b60405180910390a45050505050509695505050505050565b6001600160a01b0382166119b75760405162461bcd60e51b815260206004820152601360248201527f696e76616c69642062656e65666963696172790000000000000000000000000060448201526064016106f3565b6000826001600160a01b03168260405160006040518083038185875af1925050503d8060008114611a04576040519150601f19603f3d011682016040523d82523d6000602084013e611a09565b606091505b5050905080611a1757600080fd5b505050565b6000611a2782611ed2565b805190602001209050919050565b600080611a4183611f11565b9150611a4c83611f2c565b15611a5957506000915091565b506001915091565b6000805a9050611a7086611f52565b6000863581856001811115611a8757611a87612529565b14611ac4576001600160a01b0381166000908152602081905260409020546001600160701b0316868111611abd57808703611ac0565b60005b9250505b6040517ffcbac1f40000000000000000000000000000000000000000000000000000000081526001600160a01b0382169063fcbac1f49060a08b013590611b13908c908c908890600401612a00565b600060405180830381600088803b158015611b2d57600080fd5b5087f193505050508015611b3f575060015b611bbc57611b4b612929565b806308c379a01415611b8a5750611b60612945565b80611b6b5750611b8c565b8960008260405162fa072b60e01b81526004016106f3939291906129cf565b505b60405162fa072b60e01b8152600481018a90526000602482018190526060604483015260648201526084016106f3565b6000856001811115611bd057611bd0612529565b14611c7a576001600160a01b038116600090815260208190526040902080546001600160701b031680881115611c565760405162fa072b60e01b8152600481018c90526000602482015260606044820152601960648201527f77616c6c6574206469646e2774207061792070726566756e6400000000000000608482015260a4016106f3565b81546dffffffffffffffffffffffffffff1916908890036001600160701b03161790555b5a90920398975050505050505050565b60606000611ca0610140870161012088016122a8565b6001600160a01b03811660009081526020819052604090208054919250906001600160701b03811690600160701b900460ff1680611cf457898460405162fa072b60e01b81526004016106f3929190612a25565b86821015611d5a5760405162fa072b60e01b8152600481018b90526001600160a01b038516602482015260606044820152601960648201527f7061796d6173746572206465706f73697420746f6f206c6f7700000000000000608482015260a4016106f3565b82546dffffffffffffffffffffffffffff19168783036001600160701b03161783556040517f7bfd084500000000000000000000000000000000000000000000000000000000815260a08a0135879003906001600160a01b03861690637bfd0845908390611dd0908e908e908e90600401612a00565b6000604051808303818786fa93505050508015611e0f57506040513d6000823e601f3d908101601f19168201604052611e0c9190810190612a64565b60015b611e9357611e1b612929565b806308c379a01415611e595750611e30612945565b80611e3b5750611e5b565b8b868260405162fa072b60e01b81526004016106f3939291906129cf565b505b60405162fa072b60e01b8152600481018c90526001600160a01b038616602482015260606044820152600060648201526084016106f3565b9b9a5050505050505050505050565b600060e082013561010083013580821415611ebe575092915050565b611eca8248830161210b565b949350505050565b6060366000611ee56101608501856127a8565b915091508360208184030360405194506020810185016040528085528082602087013750505050919050565b6000611f1c82611ea2565b611f2583612123565b0292915050565b600080611f41610140840161012085016122a8565b6001600160a01b0316141592915050565b611f5f60408201826127a8565b1590506121085760006001600160a01b037f000000000000000000000000000000000000000000000000000000000000000016634af63f02611fa460408501856127a8565b6040517fffffffff0000000000000000000000000000000000000000000000000000000060e085901b168152611fe4929190602088013590600401612adc565b6020604051808303816000875af1158015612003573d6000803e3d6000fd5b505050506040513d601f19601f820116820180604052508101906120279190612b00565b90506001600160a01b03811661207f5760405162461bcd60e51b815260206004820152600e60248201527f63726561746532206661696c656400000000000000000000000000000000000060448201526064016106f3565b81356001600160a01b0316816001600160a01b0316146121065760405162461bcd60e51b8152602060048201526024808201527f73656e64657220646f65736e2774206d6174636820637265617465322061646460448201527f726573730000000000000000000000000000000000000000000000000000000060648201526084016106f3565b505b50565b600081831061211a578161211c565b825b9392505050565b60008061212f83611f2c565b61213a57600161213d565b60035b60ff1690508260c00135818460a001350284608001350101915050919050565b60006020828403121561216f57600080fd5b813563ffffffff8116811461211c57600080fd5b6000610180828403121561219657600080fd5b50919050565b6000602082840312156121ae57600080fd5b813567ffffffffffffffff8111156121c557600080fd5b611eca84828501612183565b6001600160a01b038116811461210857600080fd5b600080604083850312156121f957600080fd5b8235612204816121d1565b946020939093013593505050565b60008060006040848603121561222757600080fd5b833567ffffffffffffffff8082111561223f57600080fd5b818601915086601f83011261225357600080fd5b81358181111561226257600080fd5b8760208260051b850101111561227757600080fd5b6020928301955093505084013561228d816121d1565b809150509250925092565b80356122a3816121d1565b919050565b6000602082840312156122ba57600080fd5b813561211c816121d1565b60008060008084860360e08112156122dc57600080fd5b853567ffffffffffffffff808211156122f457600080fd5b61230089838a01612183565b965060a0601f198401121561231457600080fd5b60208801955060c088013592508083111561232e57600080fd5b828801925088601f84011261234257600080fd5b823591508082111561235357600080fd5b5087602082840101111561236657600080fd5b949793965060200194505050565b634e487b7160e01b600052604160045260246000fd5b601f8201601f1916810167ffffffffffffffff811182821017156123b0576123b0612374565b6040525050565b600067ffffffffffffffff8211156123d1576123d1612374565b50601f01601f191660200190565b600080604083850312156123f257600080fd5b823567ffffffffffffffff81111561240957600080fd5b8301601f8101851361241a57600080fd5b8035612425816123b7565b604051612432828261238a565b82815287602084860101111561244757600080fd5b8260208501602083013760006020938201840152979590910135955050505050565b6020808252825182820181905260009190848201906040850190845b818110156124a157835183529284019291840191600101612485565b50909695505050505050565b634e487b7160e01b600052601160045260246000fd5b600082198211156124d6576124d66124ad565b500190565b6000828210156124ed576124ed6124ad565b500390565b634e487b7160e01b600052603260045260246000fd5b6000823561017e1983360301811261251f57600080fd5b9190910192915050565b634e487b7160e01b600052602160045260246000fd5b6000808335601e1984360301811261255657600080fd5b830160208101925035905067ffffffffffffffff81111561257657600080fd5b80360383131561258557600080fd5b9250929050565b81835281816020850137506000828201602090810191909152601f909101601f19169091010190565b60006101806125d4846125c785612298565b6001600160a01b03169052565b602083013560208501526125eb604084018461253f565b8260408701526125fe838701828461258c565b9250505061260f606084018461253f565b858303606087015261262283828461258c565b925050506080830135608085015260a083013560a085015260c083013560c085015260e083013560e0850152610100808401358186015250610120612668818501612298565b6001600160a01b0316908501526101406126848482018561253f565b8684038388015261269684828461258c565b93505050506101606126aa8185018561253f565b868403838801526126bc84828461258c565b979650505050505050565b60005b838110156126e25781810151838201526020016126ca565b83811115610bfd5750506000910152565b6000815180845261270b8160208601602086016126c7565b601f01601f19169290920160200192915050565b60e08152600061273260e08301866125b5565b845160208401526020850151604084015260408501516002811061275857612758612529565b8060608501525060608501516080840152608085015160a084015282810360c084015261278581856126f3565b9695505050505050565b6000602082840312156127a157600080fd5b5051919050565b6000808335601e198436030181126127bf57600080fd5b83018035915067ffffffffffffffff8211156127da57600080fd5b60200191503681900382131561258557600080fd5b8183823760009101908152919050565b828152604060208201526000611eca60408301846126f3565b600060a0828403121561282a57600080fd5b60405160a0810181811067ffffffffffffffff8211171561284d5761284d612374565b8060405250823581526020830135602082015260408301356002811061287257600080fd5b6040820152606083810135908201526080928301359281019290925250919050565b6020815260006128be60208301600a8152691b9bdd081cdd185ad95960b21b602082015260400190565b92915050565b600067ffffffffffffffff8083168185168083038211156128e7576128e76124ad565b01949350505050565b60006003851061290257612902612529565b8482526060602083015261291960608301856126f3565b9050826040830152949350505050565b600060033d11156129425760046000803e5060005160e01c5b90565b600060443d10156129535790565b6040516003193d81016004833e81513d67ffffffffffffffff816024840111818411171561298357505050505090565b828501915081518181111561299b5750505050505090565b843d87010160208285010111156129b55750505050505090565b6129c46020828601018761238a565b509095945050505050565b8381526001600160a01b03831660208201526060604082015260006129f760608301846126f3565b95945050505050565b606081526000612a1360608301866125b5565b60208301949094525060400152919050565b8281526001600160a01b0382166020820152606060408201526000611eca60608301600a8152691b9bdd081cdd185ad95960b21b602082015260400190565b600060208284031215612a7657600080fd5b815167ffffffffffffffff811115612a8d57600080fd5b8201601f81018413612a9e57600080fd5b8051612aa9816123b7565b604051612ab6828261238a565b828152866020848601011115612acb57600080fd5b6127858360208301602087016126c7565b604081526000612af060408301858761258c565b9050826020830152949350505050565b600060208284031215612b1257600080fd5b815161211c816121d156fea26469706673582212201f0a79092f1bf3acb5544202bcaf5ca24ef3652eaa169e2829d3e16229cd9ea864736f6c634300080c0033",
  "linkReferences": {},
  "deployedLinkReferences": {}
}