{
  "_format": "hh-sol-artifact-1",
  "contractName": "SimpleWallet",
  "sourceName": "contracts/SimpleWallet.sol",
  "abi": [
    {
      "inputs": [
        {
          "internalType": "contract EntryPoint",
          "name": "anEntryPoint",
          "type": "address"
        },
        {
          "internalType": "address",
          "name": "anOwner",
          "type": "address"
        }
      ],
      "stateMutability": "nonpayable",
      "type": "constructor"
    },
    {
      "anonymous": false,
      "inputs": [
        {
          "indexed": true,
          "internalType": "address",
          "name": "oldEntryPoint",
          "type": "address"
        },
        {
          "indexed": true,
          "internalType": "address",
          "name": "newEntryPoint",
          "type": "address"
        }
      ],
      "name": "EntryPointChanged",
      "type": "event"
    },
    {
      "inputs": [],
      "name": "addDeposit",
      "outputs": [],
      "stateMutability": "payable",
      "type": "function"
    },
    {
      "inputs": [],
      "name": "entryPoint",
      "outputs": [
        {
          "internalType": "contract EntryPoint",
          "name": "",
          "type": "address"
        }
      ],
      "stateMutability": "view",
      "type": "function"
    },
    {
      "inputs": [
        {
          "internalType": "address",
          "name": "dest",
          "type": "address"
        },
        {
          "internalType": "uint256",
          "name": "value",
          "type": "uint256"
        },
        {
          "internalType": "bytes",
          "name": "func",
          "type": "bytes"
        }
      ],
      "name": "exec",
      "outputs": [],
      "stateMutability": "nonpayable",
      "type": "function"
    },
    {
      "inputs": [
        {
          "internalType": "address[]",
          "name": "dest",
          "type": "address[]"
        },
        {
          "internalType": "bytes[]",
          "name": "func",
          "type": "bytes[]"
        }
      ],
      "name": "execBatch",
      "outputs": [],
      "stateMutability": "nonpayable",
      "type": "function"
    },
    {
      "inputs": [
        {
          "internalType": "address",
          "name": "dest",
          "type": "address"
        },
        {
          "internalType": "uint256",
          "name": "value",
          "type": "uint256"
        },
        {
          "internalType": "bytes",
          "name": "func",
          "type": "bytes"
        }
      ],
      "name": "execFromEntryPoint",
      "outputs": [],
      "stateMutability": "nonpayable",
      "type": "function"
    },
    {
      "inputs": [],
      "name": "getDeposit",
      "outputs": [
        {
          "internalType": "uint256",
          "name": "",
          "type": "uint256"
        }
      ],
      "stateMutability": "view",
      "type": "function"
    },
    {
      "inputs": [],
      "name": "nonce",
      "outputs": [
        {
          "internalType": "uint256",
          "name": "",
          "type": "uint256"
        }
      ],
      "stateMutability": "view",
      "type": "function"
    },
    {
      "inputs": [],
      "name": "owner",
      "outputs": [
        {
          "internalType": "address",
          "name": "",
          "type": "address"
        }
      ],
      "stateMutability": "view",
      "type": "function"
    },
    {
      "inputs": [
        {
          "internalType": "address payable",
          "name": "dest",
          "type": "address"
        },
        {
          "internalType": "uint256",
          "name": "amount",
          "type": "uint256"
        }
      ],
      "name": "transfer",
      "outputs": [],
      "stateMutability": "nonpayable",
      "type": "function"
    },
    {
      "inputs": [
        {
          "internalType": "address",
          "name": "newEntryPoint",
          "type": "address"
        }
      ],
      "name": "updateEntryPoint",
      "outputs": [],
      "stateMutability": "nonpayable",
      "type": "function"
    },
    {
      "inputs": [
        {
          "components": [
            {
              "internalType": "address",
              "name": "sender",
              "type": "address"
            },
            {
              "internalType": "uint256",
              "name": "nonce",
              "type": "uint256"
            },
            {
              "internalType": "bytes",
              "name": "initCode",
              "type": "bytes"
            },
            {
              "internalType": "bytes",
              "name": "callData",
              "type": "bytes"
            },
            {
              "internalType": "uint256",
              "name": "callGas",
              "type": "uint256"
            },
            {
              "internalType": "uint256",
              "name": "verificationGas",
              "type": "uint256"
            },
            {
              "internalType": "uint256",
              "name": "preVerificationGas",
              "type": "uint256"
            },
            {
              "internalType": "uint256",
              "name": "maxFeePerGas",
              "type": "uint256"
            },
            {
              "internalType": "uint256",
              "name": "maxPriorityFeePerGas",
              "type": "uint256"
            },
            {
              "internalType": "address",
              "name": "paymaster",
              "type": "address"
            },
            {
              "internalType": "bytes",
              "name": "paymasterData",
              "type": "bytes"
            },
            {
              "internalType": "bytes",
              "name": "signature",
              "type": "bytes"
            }
          ],
          "internalType": "struct UserOperation",
          "name": "userOp",
          "type": "tuple"
        },
        {
          "internalType": "bytes32",
          "name": "requestId",
          "type": "bytes32"
        },
        {
          "internalType": "uint256",
          "name": "missingWalletFunds",
          "type": "uint256"
        }
      ],
      "name": "validateUserOp",
      "outputs": [],
      "stateMutability": "nonpayable",
      "type": "function"
    },
    {
      "inputs": [
        {
          "internalType": "address payable",
          "name": "withdrawAddress",
          "type": "address"
        },
        {
          "internalType": "uint256",
          "name": "amount",
          "type": "uint256"
        }
      ],
      "name": "withdrawDepositTo",
      "outputs": [],
      "stateMutability": "nonpayable",
      "type": "function"
    },
    {
      "stateMutability": "payable",
      "type": "receive"
    }
  ],
  "bytecode": "0x608060405234801561001057600080fd5b5060405161117738038061117783398101604081905261002f9161008f565b600180546001600160a01b039384166001600160a01b031990911617905560008054919092166c01000000000000000000000000026001600160601b039091161790556100c9565b6001600160a01b038116811461008c57600080fd5b50565b600080604083850312156100a257600080fd5b82516100ad81610077565b60208401519092506100be81610077565b809150509250929050565b61109f806100d86000396000f3fe6080604052600436106100cb5760003560e01c8063a9059cbb11610074578063c399ec881161004e578063c399ec8814610219578063d0cb75fa1461022e578063fcbac1f41461024e57600080fd5b8063a9059cbb146101ae578063affed0e0146101ce578063b0d691fe146101fb57600080fd5b80634d44560d116100a55780634d44560d1461012157806380c5c7d0146101415780638da5cb5b1461016157600080fd5b80630565bb67146100d75780631b71bb6e146100f95780634a58db191461011957600080fd5b366100d257005b600080fd5b3480156100e357600080fd5b506100f76100f2366004610d67565b61026e565b005b34801561010557600080fd5b506100f7610114366004610df0565b6102bd565b6100f76102d1565b34801561012d57600080fd5b506100f761013c366004610e14565b610342565b34801561014d57600080fd5b506100f761015c366004610d67565b6103d7565b34801561016d57600080fd5b50600054610191906c0100000000000000000000000090046001600160a01b031681565b6040516001600160a01b0390911681526020015b60405180910390f35b3480156101ba57600080fd5b506100f76101c9366004610e14565b6103df565b3480156101da57600080fd5b506000546bffffffffffffffffffffffff165b6040519081526020016101a5565b34801561020757600080fd5b506001546001600160a01b0316610191565b34801561022557600080fd5b506101ed610422565b34801561023a57600080fd5b506100f7610249366004610e85565b6104be565b34801561025a57600080fd5b506100f7610269366004610ef1565b6105c8565b610276610601565b6102b7848484848080601f01602080910402602001604051908101604052809392919081815260200183838082843760009201919091525061067792505050565b50505050565b6102c56106e7565b6102ce816106ef565b50565b60006102e56001546001600160a01b031690565b6001600160a01b03163460405160006040518083038185875af1925050503d806000811461032f576040519150601f19603f3d011682016040523d82523d6000602084013e610334565b606091505b50509050806102ce57600080fd5b61034a610601565b6001546001600160a01b03166040517f205c28780000000000000000000000000000000000000000000000000000000081526001600160a01b03848116600483015260248201849052919091169063205c287890604401600060405180830381600087803b1580156103bb57600080fd5b505af11580156103cf573d6000803e3d6000fd5b505050505050565b610276610763565b6103e7610601565b6040516001600160a01b0383169082156108fc029083906000818181858888f1935050505015801561041d573d6000803e3d6000fd5b505050565b60006104366001546001600160a01b031690565b6040517f70a082310000000000000000000000000000000000000000000000000000000081523060048201526001600160a01b0391909116906370a0823190602401602060405180830381865afa158015610495573d6000803e3d6000fd5b505050506040513d601f19601f820116820180604052508101906104b99190610f45565b905090565b6104c6610601565b82811461051a5760405162461bcd60e51b815260206004820152601360248201527f77726f6e67206172726179206c656e677468730000000000000000000000000060448201526064015b60405180910390fd5b60005b838110156105c1576105af85858381811061053a5761053a610f5e565b905060200201602081019061054f9190610df0565b600085858581811061056357610563610f5e565b90506020028101906105759190610f74565b8080601f01602080910402602001604051908101604052809392919081815260200183838082843760009201919091525061067792505050565b806105b981610fd1565b91505061051d565b5050505050565b6105d0610763565b6105da83836107bd565b6105e76040840184610f74565b151590506105f8576105f8836108d3565b61041d81610981565b6000546c0100000000000000000000000090046001600160a01b031633148061062957503330145b6106755760405162461bcd60e51b815260206004820152600a60248201527f6f6e6c79206f776e6572000000000000000000000000000000000000000000006044820152606401610511565b565b600080846001600160a01b031684846040516106939190610fec565b60006040518083038185875af1925050503d80600081146106d0576040519150601f19603f3d011682016040523d82523d6000602084013e6106d5565b606091505b5091509150816105c157805160208201fd5b610675610601565b6001546040516001600160a01b038084169216907f450909c1478d09248269d4ad4fa8cba61ca3f50faed58c7aedefa51c7f62b83a90600090a3600180547fffffffffffffffffffffffff0000000000000000000000000000000000000000166001600160a01b0392909216919091179055565b6001546001600160a01b031633146106755760405162461bcd60e51b815260206004820152601b60248201527f77616c6c65743a206e6f742066726f6d20456e747279506f696e7400000000006044820152606401610511565b6000610816826040517f19457468657265756d205369676e6564204d6573736167653a0a3332000000006020820152603c8101829052600090605c01604051602081830303815290604052805190602001209050919050565b9050610866610829610160850185610f74565b8080601f01602080910402602001604051908101604052809392919081815260200183838082843760009201919091525085939250506109ce9050565b6000546c0100000000000000000000000090046001600160a01b0390811691161461041d5760405162461bcd60e51b815260206004820152601760248201527f77616c6c65743a2077726f6e67207369676e61747572650000000000000000006044820152606401610511565b600080546020830135916bffffffffffffffffffffffff90911690806108f883611027565b91906101000a8154816bffffffffffffffffffffffff02191690836bffffffffffffffffffffffff1602179055506bffffffffffffffffffffffff16146102ce5760405162461bcd60e51b815260206004820152601560248201527f77616c6c65743a20696e76616c6964206e6f6e636500000000000000000000006044820152606401610511565b80156102ce57604051600090339060001990849084818181858888f193505050503d80600081146105c1576040519150601f19603f3d011682016040523d82523d6000602084013e6105c1565b60008060006109dd85856109f2565b915091506109ea81610a62565b509392505050565b600080825160411415610a295760208301516040840151606085015160001a610a1d87828585610c1d565b94509450505050610a5b565b825160401415610a535760208301516040840151610a48868383610d0a565b935093505050610a5b565b506000905060025b9250929050565b6000816004811115610a7657610a76611053565b1415610a7f5750565b6001816004811115610a9357610a93611053565b1415610ae15760405162461bcd60e51b815260206004820152601860248201527f45434453413a20696e76616c6964207369676e617475726500000000000000006044820152606401610511565b6002816004811115610af557610af5611053565b1415610b435760405162461bcd60e51b815260206004820152601f60248201527f45434453413a20696e76616c6964207369676e6174757265206c656e677468006044820152606401610511565b6003816004811115610b5757610b57611053565b1415610bb05760405162461bcd60e51b815260206004820152602260248201527f45434453413a20696e76616c6964207369676e6174757265202773272076616c604482015261756560f01b6064820152608401610511565b6004816004811115610bc457610bc4611053565b14156102ce5760405162461bcd60e51b815260206004820152602260248201527f45434453413a20696e76616c6964207369676e6174757265202776272076616c604482015261756560f01b6064820152608401610511565b6000807f7fffffffffffffffffffffffffffffff5d576e7357a4501ddfe92f46681b20a0831115610c545750600090506003610d01565b8460ff16601b14158015610c6c57508460ff16601c14155b15610c7d5750600090506004610d01565b6040805160008082526020820180845289905260ff881692820192909252606081018690526080810185905260019060a0016020604051602081039080840390855afa158015610cd1573d6000803e3d6000fd5b5050604051601f1901519150506001600160a01b038116610cfa57600060019250925050610d01565b9150600090505b94509492505050565b6000807f7fffffffffffffffffffffffffffffffffffffffffffffffffffffffffffffff831660ff84901c601b01610d4487828885610c1d565b935093505050935093915050565b6001600160a01b03811681146102ce57600080fd5b60008060008060608587031215610d7d57600080fd5b8435610d8881610d52565b935060208501359250604085013567ffffffffffffffff80821115610dac57600080fd5b818701915087601f830112610dc057600080fd5b813581811115610dcf57600080fd5b886020828501011115610de157600080fd5b95989497505060200194505050565b600060208284031215610e0257600080fd5b8135610e0d81610d52565b9392505050565b60008060408385031215610e2757600080fd5b8235610e3281610d52565b946020939093013593505050565b60008083601f840112610e5257600080fd5b50813567ffffffffffffffff811115610e6a57600080fd5b6020830191508360208260051b8501011115610a5b57600080fd5b60008060008060408587031215610e9b57600080fd5b843567ffffffffffffffff80821115610eb357600080fd5b610ebf88838901610e40565b90965094506020870135915080821115610ed857600080fd5b50610ee587828801610e40565b95989497509550505050565b600080600060608486031215610f0657600080fd5b833567ffffffffffffffff811115610f1d57600080fd5b84016101808187031215610f3057600080fd5b95602085013595506040909401359392505050565b600060208284031215610f5757600080fd5b5051919050565b634e487b7160e01b600052603260045260246000fd5b6000808335601e19843603018112610f8b57600080fd5b83018035915067ffffffffffffffff821115610fa657600080fd5b602001915036819003821315610a5b57600080fd5b634e487b7160e01b600052601160045260246000fd5b6000600019821415610fe557610fe5610fbb565b5060010190565b6000825160005b8181101561100d5760208186018101518583015201610ff3565b8181111561101c576000828501525b509190910192915050565b60006bffffffffffffffffffffffff8083168181141561104957611049610fbb565b6001019392505050565b634e487b7160e01b600052602160045260246000fdfea26469706673582212203bed2fcc8e46c2284b50a71bda34fd1b03a4ba66e8f7d63c32b0ab98b81bb2a364736f6c634300080c0033",
  "linkReferences": {},
  "deployedLinkReferences": {}
}