{
  "_format": "hh-sol-artifact-1",
  "contractName": "StakeManager",
  "sourceName": "contracts/StakeManager.sol",
  "abi": [
    {
      "inputs": [
        {
          "internalType": "uint32",
          "name": "_unstakeDelaySec",
          "type": "uint32"
        }
      ],
      "stateMutability": "nonpayable",
      "type": "constructor"
    },
    {
      "anonymous": false,
      "inputs": [
        {
          "indexed": true,
          "internalType": "address",
          "name": "account",
          "type": "address"
        },
        {
          "indexed": false,
          "internalType": "uint256",
          "name": "withdrawTime",
          "type": "uint256"
        }
      ],
      "name": "DepositUnstaked",
      "type": "event"
    },
    {
      "anonymous": false,
      "inputs": [
        {
          "indexed": true,
          "internalType": "address",
          "name": "account",
          "type": "address"
        },
        {
          "indexed": false,
          "internalType": "uint256",
          "name": "totalDeposit",
          "type": "uint256"
        },
        {
          "indexed": false,
          "internalType": "uint256",
          "name": "unstakeDelaySec",
          "type": "uint256"
        }
      ],
      "name": "Deposited",
      "type": "event"
    },
    {
      "anonymous": false,
      "inputs": [
        {
          "indexed": true,
          "internalType": "address",
          "name": "account",
          "type": "address"
        },
        {
          "indexed": false,
          "internalType": "address",
          "name": "withdrawAddress",
          "type": "address"
        },
        {
          "indexed": false,
          "internalType": "uint256",
          "name": "withdrawAmount",
          "type": "uint256"
        }
      ],
      "name": "Withdrawn",
      "type": "event"
    },
    {
      "inputs": [
        {
          "internalType": "address",
          "name": "account",
          "type": "address"
        },
        {
          "internalType": "uint32",
          "name": "_unstakeDelaySec",
          "type": "uint32"
        }
      ],
      "name": "addStakeTo",
      "outputs": [],
      "stateMutability": "payable",
      "type": "function"
    },
    {
      "inputs": [
        {
          "internalType": "address",
          "name": "account",
          "type": "address"
        }
      ],
      "name": "balanceOf",
      "outputs": [
        {
          "internalType": "uint256",
          "name": "",
          "type": "uint256"
        }
      ],
      "stateMutability": "view",
      "type": "function"
    },
    {
      "inputs": [
        {
          "internalType": "address",
          "name": "account",
          "type": "address"
        }
      ],
      "name": "depositTo",
      "outputs": [],
      "stateMutability": "payable",
      "type": "function"
    },
    {
      "inputs": [
        {
          "internalType": "address",
          "name": "",
          "type": "address"
        }
      ],
      "name": "deposits",
      "outputs": [
        {
          "internalType": "uint112",
          "name": "amount",
          "type": "uint112"
        },
        {
          "internalType": "uint32",
          "name": "unstakeDelaySec",
          "type": "uint32"
        },
        {
          "internalType": "uint64",
          "name": "withdrawTime",
          "type": "uint64"
        }
      ],
      "stateMutability": "view",
      "type": "function"
    },
    {
      "inputs": [
        {
          "internalType": "address",
          "name": "account",
          "type": "address"
        }
      ],
      "name": "getDepositInfo",
      "outputs": [
        {
          "components": [
            {
              "internalType": "uint112",
              "name": "amount",
              "type": "uint112"
            },
            {
              "internalType": "uint32",
              "name": "unstakeDelaySec",
              "type": "uint32"
            },
            {
              "internalType": "uint64",
              "name": "withdrawTime",
              "type": "uint64"
            }
          ],
          "internalType": "struct StakeManager.DepositInfo",
          "name": "info",
          "type": "tuple"
        }
      ],
      "stateMutability": "view",
      "type": "function"
    },
    {
      "inputs": [
        {
          "internalType": "address",
          "name": "account",
          "type": "address"
        },
        {
          "internalType": "uint256",
          "name": "requiredStake",
          "type": "uint256"
        },
        {
          "internalType": "uint256",
          "name": "requiredDelaySec",
          "type": "uint256"
        }
      ],
      "name": "isStaked",
      "outputs": [
        {
          "internalType": "bool",
          "name": "",
          "type": "bool"
        }
      ],
      "stateMutability": "view",
      "type": "function"
    },
    {
      "inputs": [],
      "name": "unstakeDelaySec",
      "outputs": [
        {
          "internalType": "uint32",
          "name": "",
          "type": "uint32"
        }
      ],
      "stateMutability": "view",
      "type": "function"
    },
    {
      "inputs": [],
      "name": "unstakeDeposit",
      "outputs": [],
      "stateMutability": "nonpayable",
      "type": "function"
    },
    {
      "inputs": [
        {
          "internalType": "address payable",
          "name": "withdrawAddress",
          "type": "address"
        },
        {
          "internalType": "uint256",
          "name": "withdrawAmount",
          "type": "uint256"
        }
      ],
      "name": "withdrawTo",
      "outputs": [],
      "stateMutability": "nonpayable",
      "type": "function"
    },
    {
      "stateMutability": "payable",
      "type": "receive"
    }
  ],
  "bytecode": "0x60a06040523480156200001157600080fd5b506040516200188e3803806200188e833981810160405281019062000037919062000098565b8063ffffffff1660808163ffffffff168152505050620000ca565b600080fd5b600063ffffffff82169050919050565b620000728162000057565b81146200007e57600080fd5b50565b600081519050620000928162000067565b92915050565b600060208284031215620000b157620000b062000052565b5b6000620000c18482850162000081565b91505092915050565b6080516117a8620000e660003960006109a301526117a86000f3fe60806040526004361061008a5760003560e01c80634a5b84ec116100595780634a5b84ec146101475780635287ce121461016357806370a08231146101a0578063b760faf9146101dd578063fc7e286d146101f95761009a565b80631c112a441461009f578063205c2878146100dc57806337bbb73a14610105578063390b99781461011c5761009a565b3661009a5761009833610238565b005b600080fd5b3480156100ab57600080fd5b506100c660048036038101906100c19190610f84565b61030a565b6040516100d39190610ff2565b60405180910390f35b3480156100e857600080fd5b5061010360048036038101906100fe919061104b565b610446565b005b34801561011157600080fd5b5061011a6107f5565b005b34801561012857600080fd5b506101316109a1565b60405161013e91906110aa565b60405180910390f35b610161600480360381019061015c91906110f1565b6109c5565b005b34801561016f57600080fd5b5061018a60048036038101906101859190611131565b610c39565b60405161019791906111fb565b60405180910390f35b3480156101ac57600080fd5b506101c760048036038101906101c29190611131565b610d2d565b6040516101d49190611225565b60405180910390f35b6101f760048036038101906101f29190611131565b610238565b005b34801561020557600080fd5b50610220600480360381019061021b9190611131565b610da2565b60405161022f9392919061125e565b60405180910390f35b6102428134610e0a565b60008060008373ffffffffffffffffffffffffffffffffffffffff1673ffffffffffffffffffffffffffffffffffffffff16815260200190815260200160002090503373ffffffffffffffffffffffffffffffffffffffff167f73a19dd210f1a7f902193214c0ee91dd35ee5b4d920cba8d519eca65a7b488ca8260000160009054906101000a90046dffffffffffffffffffffffffffff1683600001600e9054906101000a900463ffffffff166040516102fe929190611301565b60405180910390a25050565b6000806000808673ffffffffffffffffffffffffffffffffffffffff1673ffffffffffffffffffffffffffffffffffffffff1681526020019081526020016000206040518060600160405290816000820160009054906101000a90046dffffffffffffffffffffffffffff166dffffffffffffffffffffffffffff166dffffffffffffffffffffffffffff16815260200160008201600e9054906101000a900463ffffffff1663ffffffff1663ffffffff1681526020016000820160129054906101000a900467ffffffffffffffff1667ffffffffffffffff1667ffffffffffffffff168152505090508381600001516dffffffffffffffffffffffffffff1610158015610422575082816020015163ffffffff1610155b801561043c57506000816040015167ffffffffffffffff16145b9150509392505050565b60008060003373ffffffffffffffffffffffffffffffffffffffff1673ffffffffffffffffffffffffffffffffffffffff1681526020019081526020016000206040518060600160405290816000820160009054906101000a90046dffffffffffffffffffffffffffff166dffffffffffffffffffffffffffff166dffffffffffffffffffffffffffff16815260200160008201600e9054906101000a900463ffffffff1663ffffffff1663ffffffff1681526020016000820160129054906101000a900467ffffffffffffffff1667ffffffffffffffff1667ffffffffffffffff168152505090506000816020015163ffffffff16146105e4576000816040015167ffffffffffffffff1611610592576040517f08c379a000000000000000000000000000000000000000000000000000000000815260040161058990611387565b60405180910390fd5b42816040015167ffffffffffffffff1611156105e3576040517f08c379a00000000000000000000000000000000000000000000000000000000081526004016105da906113f3565b60405180910390fd5b5b80600001516dffffffffffffffffffffffffffff1682111561063b576040517f08c379a00000000000000000000000000000000000000000000000000000000081526004016106329061145f565b60405180910390fd5b604051806060016040528083836000015161065691906114ae565b6dffffffffffffffffffffffffffff168152602001600063ffffffff168152602001600067ffffffffffffffff168152506000803373ffffffffffffffffffffffffffffffffffffffff1673ffffffffffffffffffffffffffffffffffffffff16815260200190815260200160002060008201518160000160006101000a8154816dffffffffffffffffffffffffffff02191690836dffffffffffffffffffffffffffff160217905550602082015181600001600e6101000a81548163ffffffff021916908363ffffffff16021790555060408201518160000160126101000a81548167ffffffffffffffff021916908367ffffffffffffffff1602179055509050508273ffffffffffffffffffffffffffffffffffffffff166108fc839081150290604051600060405180830381858888f1935050505015801561079f573d6000803e3d6000fd5b503373ffffffffffffffffffffffffffffffffffffffff167fd1c19fbcd4551a5edfb66d43d2e337c04837afda3482b42bdf569a8fccdae5fb84846040516107e8929190611537565b60405180910390a2505050565b60008060003373ffffffffffffffffffffffffffffffffffffffff1673ffffffffffffffffffffffffffffffffffffffff168152602001908152602001600020905060008160000160129054906101000a900467ffffffffffffffff1667ffffffffffffffff161461089c576040517f08c379a0000000000000000000000000000000000000000000000000000000008152600401610893906115ac565b60405180910390fd5b600081600001600e9054906101000a900463ffffffff1663ffffffff1614156108fa576040517f08c379a00000000000000000000000000000000000000000000000000000000081526004016108f190611618565b60405180910390fd5b600081600001600e9054906101000a900463ffffffff1663ffffffff16426109229190611638565b9050808260000160126101000a81548167ffffffffffffffff021916908367ffffffffffffffff1602179055503373ffffffffffffffffffffffffffffffffffffffff167f91e6fc21bf6989ecaaa31f2c7d10426d5fa64279f0af85af30e0964230960ce28260405161099591906116a7565b60405180910390a25050565b7f000000000000000000000000000000000000000000000000000000000000000081565b60008060008473ffffffffffffffffffffffffffffffffffffffff1673ffffffffffffffffffffffffffffffffffffffff168152602001908152602001600020905080600001600e9054906101000a900463ffffffff1663ffffffff168263ffffffff161015610a6a576040517f08c379a0000000000000000000000000000000000000000000000000000000008152600401610a619061170e565b60405180910390fd5b6000346000803373ffffffffffffffffffffffffffffffffffffffff1673ffffffffffffffffffffffffffffffffffffffff16815260200190815260200160002060000160009054906101000a90046dffffffffffffffffffffffffffff16610ad3919061172e565b90506040518060600160405280826dffffffffffffffffffffffffffff1681526020018463ffffffff168152602001600067ffffffffffffffff168152506000808673ffffffffffffffffffffffffffffffffffffffff1673ffffffffffffffffffffffffffffffffffffffff16815260200190815260200160002060008201518160000160006101000a8154816dffffffffffffffffffffffffffff02191690836dffffffffffffffffffffffffffff160217905550602082015181600001600e6101000a81548163ffffffff021916908363ffffffff16021790555060408201518160000160126101000a81548167ffffffffffffffff021916908367ffffffffffffffff1602179055509050508373ffffffffffffffffffffffffffffffffffffffff167f73a19dd210f1a7f902193214c0ee91dd35ee5b4d920cba8d519eca65a7b488ca8285604051610c2b929190611301565b60405180910390a250505050565b610c41610eaa565b6000808373ffffffffffffffffffffffffffffffffffffffff1673ffffffffffffffffffffffffffffffffffffffff1681526020019081526020016000206040518060600160405290816000820160009054906101000a90046dffffffffffffffffffffffffffff166dffffffffffffffffffffffffffff166dffffffffffffffffffffffffffff16815260200160008201600e9054906101000a900463ffffffff1663ffffffff1663ffffffff1681526020016000820160129054906101000a900467ffffffffffffffff1667ffffffffffffffff1667ffffffffffffffff16815250509050919050565b60008060008373ffffffffffffffffffffffffffffffffffffffff1673ffffffffffffffffffffffffffffffffffffffff16815260200190815260200160002060000160009054906101000a90046dffffffffffffffffffffffffffff166dffffffffffffffffffffffffffff169050919050565b60006020528060005260406000206000915090508060000160009054906101000a90046dffffffffffffffffffffffffffff169080600001600e9054906101000a900463ffffffff16908060000160129054906101000a900467ffffffffffffffff16905083565b806000808473ffffffffffffffffffffffffffffffffffffffff1673ffffffffffffffffffffffffffffffffffffffff16815260200190815260200160002060000160008282829054906101000a90046dffffffffffffffffffffffffffff16610e74919061172e565b92506101000a8154816dffffffffffffffffffffffffffff02191690836dffffffffffffffffffffffffffff1602179055505050565b604051806060016040528060006dffffffffffffffffffffffffffff168152602001600063ffffffff168152602001600067ffffffffffffffff1681525090565b600080fd5b600073ffffffffffffffffffffffffffffffffffffffff82169050919050565b6000610f1b82610ef0565b9050919050565b610f2b81610f10565b8114610f3657600080fd5b50565b600081359050610f4881610f22565b92915050565b6000819050919050565b610f6181610f4e565b8114610f6c57600080fd5b50565b600081359050610f7e81610f58565b92915050565b600080600060608486031215610f9d57610f9c610eeb565b5b6000610fab86828701610f39565b9350506020610fbc86828701610f6f565b9250506040610fcd86828701610f6f565b9150509250925092565b60008115159050919050565b610fec81610fd7565b82525050565b60006020820190506110076000830184610fe3565b92915050565b600061101882610ef0565b9050919050565b6110288161100d565b811461103357600080fd5b50565b6000813590506110458161101f565b92915050565b6000806040838503121561106257611061610eeb565b5b600061107085828601611036565b925050602061108185828601610f6f565b9150509250929050565b600063ffffffff82169050919050565b6110a48161108b565b82525050565b60006020820190506110bf600083018461109b565b92915050565b6110ce8161108b565b81146110d957600080fd5b50565b6000813590506110eb816110c5565b92915050565b6000806040838503121561110857611107610eeb565b5b600061111685828601610f39565b9250506020611127858286016110dc565b9150509250929050565b60006020828403121561114757611146610eeb565b5b600061115584828501610f39565b91505092915050565b60006dffffffffffffffffffffffffffff82169050919050565b6111818161115e565b82525050565b6111908161108b565b82525050565b600067ffffffffffffffff82169050919050565b6111b381611196565b82525050565b6060820160008201516111cf6000850182611178565b5060208201516111e26020850182611187565b5060408201516111f560408501826111aa565b50505050565b600060608201905061121060008301846111b9565b92915050565b61121f81610f4e565b82525050565b600060208201905061123a6000830184611216565b92915050565b6112498161115e565b82525050565b61125881611196565b82525050565b60006060820190506112736000830186611240565b611280602083018561109b565b61128d604083018461124f565b949350505050565b6000819050919050565b60006112ba6112b56112b08461115e565b611295565b610f4e565b9050919050565b6112ca8161129f565b82525050565b60006112eb6112e66112e18461108b565b611295565b610f4e565b9050919050565b6112fb816112d0565b82525050565b600060408201905061131660008301856112c1565b61132360208301846112f2565b9392505050565b600082825260208201905092915050565b7f6d7573742063616c6c20756e7374616b654465706f7369742829206669727374600082015250565b600061137160208361132a565b915061137c8261133b565b602082019050919050565b600060208201905081810360008301526113a081611364565b9050919050565b7f5769746864726177616c206973206e6f74206475650000000000000000000000600082015250565b60006113dd60158361132a565b91506113e8826113a7565b602082019050919050565b6000602082019050818103600083015261140c816113d0565b9050919050565b7f576974686472617720616d6f756e7420746f6f206c6172676500000000000000600082015250565b600061144960198361132a565b915061145482611413565b602082019050919050565b600060208201905081810360008301526114788161143c565b9050919050565b7f4e487b7100000000000000000000000000000000000000000000000000000000600052601160045260246000fd5b60006114b98261115e565b91506114c48361115e565b9250828210156114d7576114d661147f565b5b828203905092915050565b60006114fd6114f86114f384610ef0565b611295565b610ef0565b9050919050565b600061150f826114e2565b9050919050565b600061152182611504565b9050919050565b61153181611516565b82525050565b600060408201905061154c6000830185611528565b6115596020830184611216565b9392505050565b7f616c726561647920756e7374616b696e67000000000000000000000000000000600082015250565b600061159660118361132a565b91506115a182611560565b602082019050919050565b600060208201905081810360008301526115c581611589565b9050919050565b7f6e6f74207374616b656400000000000000000000000000000000000000000000600082015250565b6000611602600a8361132a565b915061160d826115cc565b602082019050919050565b60006020820190508181036000830152611631816115f5565b9050919050565b600061164382611196565b915061164e83611196565b92508267ffffffffffffffff0382111561166b5761166a61147f565b5b828201905092915050565b600061169161168c61168784611196565b611295565b610f4e565b9050919050565b6116a181611676565b82525050565b60006020820190506116bc6000830184611698565b92915050565b7f63616e6e6f7420646563726561736520756e7374616b652074696d6500000000600082015250565b60006116f8601c8361132a565b9150611703826116c2565b602082019050919050565b60006020820190508181036000830152611727816116eb565b9050919050565b60006117398261115e565b91506117448361115e565b9250826dffffffffffffffffffffffffffff038211156117675761176661147f565b5b82820190509291505056fea26469706673582212207e2b4b3c6e7161e7cce323436691c5823e00988587cb29c6254aa9857f5202be64736f6c634300080c0033",
  "linkReferences": {},
  "deployedLinkReferences": {}
}