{
  "_format": "hh-sol-artifact-1",
  "contractName": "VerifyingPaymaster",
  "sourceName": "contracts/VerifyingPaymaster.sol",
  "abi": [
    {
      "inputs": [
        {
          "internalType": "contract EntryPoint",
          "name": "_entryPoint",
          "type": "address"
        },
        {
          "internalType": "address",
          "name": "_verifyingSigner",
          "type": "address"
        }
      ],
      "stateMutability": "nonpayable",
      "type": "constructor"
    },
    {
      "anonymous": false,
      "inputs": [
        {
          "indexed": true,
          "internalType": "address",
          "name": "previousOwner",
          "type": "address"
        },
        {
          "indexed": true,
          "internalType": "address",
          "name": "newOwner",
          "type": "address"
        }
      ],
      "name": "OwnershipTransferred",
      "type": "event"
    },
    {
      "inputs": [
        {
          "internalType": "uint32",
          "name": "extraUnstakeDelaySec",
          "type": "uint32"
        }
      ],
      "name": "addStake",
      "outputs": [],
      "stateMutability": "payable",
      "type": "function"
    },
    {
      "inputs": [],
      "name": "deposit",
      "outputs": [],
      "stateMutability": "payable",
      "type": "function"
    },
    {
      "inputs": [],
      "name": "entryPoint",
      "outputs": [
        {
          "internalType": "contract EntryPoint",
          "name": "",
          "type": "address"
        }
      ],
      "stateMutability": "view",
      "type": "function"
    },
    {
      "inputs": [],
      "name": "getDeposit",
      "outputs": [
        {
          "internalType": "uint256",
          "name": "",
          "type": "uint256"
        }
      ],
      "stateMutability": "view",
      "type": "function"
    },
    {
      "inputs": [
        {
          "components": [
            {
              "internalType": "address",
              "name": "sender",
              "type": "address"
            },
            {
              "internalType": "uint256",
              "name": "nonce",
              "type": "uint256"
            },
            {
              "internalType": "bytes",
              "name": "initCode",
              "type": "bytes"
            },
            {
              "internalType": "bytes",
              "name": "callData",
              "type": "bytes"
            },
            {
              "internalType": "uint256",
              "name": "callGas",
              "type": "uint256"
            },
            {
              "internalType": "uint256",
              "name": "verificationGas",
              "type": "uint256"
            },
            {
              "internalType": "uint256",
              "name": "preVerificationGas",
              "type": "uint256"
            },
            {
              "internalType": "uint256",
              "name": "maxFeePerGas",
              "type": "uint256"
            },
            {
              "internalType": "uint256",
              "name": "maxPriorityFeePerGas",
              "type": "uint256"
            },
            {
              "internalType": "address",
              "name": "paymaster",
              "type": "address"
            },
            {
              "internalType": "bytes",
              "name": "paymasterData",
              "type": "bytes"
            },
            {
              "internalType": "bytes",
              "name": "signature",
              "type": "bytes"
            }
          ],
          "internalType": "struct UserOperation",
          "name": "userOp",
          "type": "tuple"
        }
      ],
      "name": "getHash",
      "outputs": [
        {
          "internalType": "bytes32",
          "name": "",
          "type": "bytes32"
        }
      ],
      "stateMutability": "pure",
      "type": "function"
    },
    {
      "inputs": [],
      "name": "owner",
      "outputs": [
        {
          "internalType": "address",
          "name": "",
          "type": "address"
        }
      ],
      "stateMutability": "view",
      "type": "function"
    },
    {
      "inputs": [
        {
          "internalType": "enum IPaymaster.PostOpMode",
          "name": "mode",
          "type": "uint8"
        },
        {
          "internalType": "bytes",
          "name": "context",
          "type": "bytes"
        },
        {
          "internalType": "uint256",
          "name": "actualGasCost",
          "type": "uint256"
        }
      ],
      "name": "postOp",
      "outputs": [],
      "stateMutability": "nonpayable",
      "type": "function"
    },
    {
      "inputs": [],
      "name": "renounceOwnership",
      "outputs": [],
      "stateMutability": "nonpayable",
      "type": "function"
    },
    {
      "inputs": [
        {
          "internalType": "contract EntryPoint",
          "name": "_entryPoint",
          "type": "address"
        }
      ],
      "name": "setEntryPoint",
      "outputs": [],
      "stateMutability": "nonpayable",
      "type": "function"
    },
    {
      "inputs": [
        {
          "internalType": "address",
          "name": "newOwner",
          "type": "address"
        }
      ],
      "name": "transferOwnership",
      "outputs": [],
      "stateMutability": "nonpayable",
      "type": "function"
    },
    {
      "inputs": [],
      "name": "unlockStake",
      "outputs": [],
      "stateMutability": "nonpayable",
      "type": "function"
    },
    {
      "inputs": [
        {
          "components": [
            {
              "internalType": "address",
              "name": "sender",
              "type": "address"
            },
            {
              "internalType": "uint256",
              "name": "nonce",
              "type": "uint256"
            },
            {
              "internalType": "bytes",
              "name": "initCode",
              "type": "bytes"
            },
            {
              "internalType": "bytes",
              "name": "callData",
              "type": "bytes"
            },
            {
              "internalType": "uint256",
              "name": "callGas",
              "type": "uint256"
            },
            {
              "internalType": "uint256",
              "name": "verificationGas",
              "type": "uint256"
            },
            {
              "internalType": "uint256",
              "name": "preVerificationGas",
              "type": "uint256"
            },
            {
              "internalType": "uint256",
              "name": "maxFeePerGas",
              "type": "uint256"
            },
            {
              "internalType": "uint256",
              "name": "maxPriorityFeePerGas",
              "type": "uint256"
            },
            {
              "internalType": "address",
              "name": "paymaster",
              "type": "address"
            },
            {
              "internalType": "bytes",
              "name": "paymasterData",
              "type": "bytes"
            },
            {
              "internalType": "bytes",
              "name": "signature",
              "type": "bytes"
            }
          ],
          "internalType": "struct UserOperation",
          "name": "userOp",
          "type": "tuple"
        },
        {
          "internalType": "bytes32",
          "name": "",
          "type": "bytes32"
        },
        {
          "internalType": "uint256",
          "name": "requiredPreFund",
          "type": "uint256"
        }
      ],
      "name": "validatePaymasterUserOp",
      "outputs": [
        {
          "internalType": "bytes",
          "name": "context",
          "type": "bytes"
        }
      ],
      "stateMutability": "view",
      "type": "function"
    },
    {
      "inputs": [],
      "name": "verifyingSigner",
      "outputs": [
        {
          "internalType": "address",
          "name": "",
          "type": "address"
        }
      ],
      "stateMutability": "view",
      "type": "function"
    },
    {
      "inputs": [
        {
          "internalType": "address payable",
          "name": "withdrawAddress",
          "type": "address"
        }
      ],
      "name": "withdrawStake",
      "outputs": [],
      "stateMutability": "nonpayable",
      "type": "function"
    },
    {
      "inputs": [
        {
          "internalType": "address payable",
          "name": "withdrawAddress",
          "type": "address"
        },
        {
          "internalType": "uint256",
          "name": "amount",
          "type": "uint256"
        }
      ],
      "name": "withdrawTo",
      "outputs": [],
      "stateMutability": "nonpayable",
      "type": "function"
    }
  ],
  "bytecode": "0x60a06040523480156200001157600080fd5b506040516200156838038062001568833981016040819052620000349162000149565b8162000040336200005f565b6200004b81620000af565b506001600160a01b03166080525062000188565b600080546001600160a01b038381166001600160a01b0319831681178455604051919092169283917f8be0079c531659141344cd1fd0a4f28419497f9722a3daafe3b4186f6b6457e09190a35050565b6000546001600160a01b031633146200010e5760405162461bcd60e51b815260206004820181905260248201527f4f776e61626c653a2063616c6c6572206973206e6f7420746865206f776e6572604482015260640160405180910390fd5b600180546001600160a01b0319166001600160a01b0392909216919091179055565b6001600160a01b03811681146200014657600080fd5b50565b600080604083850312156200015d57600080fd5b82516200016a8162000130565b60208401519092506200017d8162000130565b809150509250929050565b6080516113bd620001ab6000396000818161013401526106f601526113bd6000f3fe6080604052600436106100e85760003560e01c80638da5cb5b1161008a578063c23a5cea11610059578063c23a5cea14610276578063c399ec8814610296578063d0e30db0146102ab578063f2fde38b146102b357600080fd5b80638da5cb5b14610203578063a9a2340914610221578063b0d691fe14610241578063bb9fe6bf1461026157600080fd5b8063584465f2116100c6578063584465f214610173578063715018a6146101935780637bfd0845146101a8578063813b3839146101d557600080fd5b80630396cb60146100ed578063205c28781461010257806323d9ac9b14610122575b600080fd5b6101006100fb3660046110a4565b6102d3565b005b34801561010e57600080fd5b5061010061011d3660046110dd565b610441565b34801561012e57600080fd5b506101567f000000000000000000000000000000000000000000000000000000000000000081565b6040516001600160a01b0390911681526020015b60405180910390f35b34801561017f57600080fd5b5061010061018e366004611109565b610502565b34801561019f57600080fd5b5061010061058b565b3480156101b457600080fd5b506101c86101c336600461113f565b6105f1565b60405161016a919061118d565b3480156101e157600080fd5b506101f56101f03660046111e2565b6107aa565b60405190815260200161016a565b34801561020f57600080fd5b506000546001600160a01b0316610156565b34801561022d57600080fd5b5061010061023c36600461121f565b61089e565b34801561024d57600080fd5b50600154610156906001600160a01b031681565b34801561026d57600080fd5b506101006108b8565b34801561028257600080fd5b50610100610291366004611109565b610976565b3480156102a257600080fd5b506101f5610a4b565b610100610ad6565b3480156102bf57600080fd5b506101006102ce366004611109565b610b35565b6000546001600160a01b031633146103325760405162461bcd60e51b815260206004820181905260248201527f4f776e61626c653a2063616c6c6572206973206e6f7420746865206f776e657260448201526064015b60405180910390fd5b600154604080517f390b997800000000000000000000000000000000000000000000000000000000815290516001600160a01b0390921691630396cb609134918591859163390b9978916004808201926020929091908290030181865afa1580156103a1573d6000803e3d6000fd5b505050506040513d601f19601f820116820180604052508101906103c591906112ae565b6103cf91906112cb565b6040517fffffffff0000000000000000000000000000000000000000000000000000000060e085901b16815263ffffffff9190911660048201526024016000604051808303818588803b15801561042557600080fd5b505af1158015610439573d6000803e3d6000fd5b505050505050565b6000546001600160a01b0316331461049b5760405162461bcd60e51b815260206004820181905260248201527f4f776e61626c653a2063616c6c6572206973206e6f7420746865206f776e65726044820152606401610329565b6001546040517f205c28780000000000000000000000000000000000000000000000000000000081526001600160a01b038481166004830152602482018490529091169063205c287890604401600060405180830381600087803b15801561042557600080fd5b6000546001600160a01b0316331461055c5760405162461bcd60e51b815260206004820181905260248201527f4f776e61626c653a2063616c6c6572206973206e6f7420746865206f776e65726044820152606401610329565b6001805473ffffffffffffffffffffffffffffffffffffffff19166001600160a01b0392909216919091179055565b6000546001600160a01b031633146105e55760405162461bcd60e51b815260206004820181905260248201527f4f776e61626c653a2063616c6c6572206973206e6f7420746865206f776e65726044820152606401610329565b6105ef6000610c17565b565b606060006105fe856107aa565b90506000610610610140870187611301565b91505060408114806106225750806041145b6106945760405162461bcd60e51b815260206004820152603d60248201527f566572696679696e675061796d61737465723a20696e76616c6964207369676e60448201527f6174757265206c656e67746820696e207061796d6173746572446174610000006064820152608401610329565b6106eb6106a5610140880188611301565b8080601f0160208091040260200160405190810160405280939291908181526020018383808284376000920191909152506106e59250869150610c749050565b90610caf565b6001600160a01b03167f00000000000000000000000000000000000000000000000000000000000000006001600160a01b0316146107915760405162461bcd60e51b815260206004820152602360248201527f566572696679696e675061796d61737465723a2077726f6e67207369676e617460448201527f75726500000000000000000000000000000000000000000000000000000000006064820152608401610329565b5050604080516020810190915260008152949350505050565b6000813560208301356107c06040850185611301565b6040516107ce929190611348565b6040519081900390206107e46060860186611301565b6040516107f2929190611348565b604051908190039020608086013560a087013560c088013560e08901356101008a01356108276101408c016101208d01611109565b604080516001600160a01b039b8c166020820152908101999099526060890197909752608088019590955260a087019390935260c086019190915260e0850152610100840152610120830152909116610140820152610160015b604051602081830303815290604052805190602001209050919050565b6108a6610cd3565b6108b284848484610cea565b50505050565b6000546001600160a01b031633146109125760405162461bcd60e51b815260206004820181905260248201527f4f776e61626c653a2063616c6c6572206973206e6f7420746865206f776e65726044820152606401610329565b600160009054906101000a90046001600160a01b03166001600160a01b031663bb9fe6bf6040518163ffffffff1660e01b8152600401600060405180830381600087803b15801561096257600080fd5b505af11580156108b2573d6000803e3d6000fd5b6000546001600160a01b031633146109d05760405162461bcd60e51b815260206004820181905260248201527f4f776e61626c653a2063616c6c6572206973206e6f7420746865206f776e65726044820152606401610329565b6001546040517fc23a5cea0000000000000000000000000000000000000000000000000000000081526001600160a01b0383811660048301529091169063c23a5cea90602401600060405180830381600087803b158015610a3057600080fd5b505af1158015610a44573d6000803e3d6000fd5b5050505050565b6001546040517f70a082310000000000000000000000000000000000000000000000000000000081523060048201526000916001600160a01b0316906370a0823190602401602060405180830381865afa158015610aad573d6000803e3d6000fd5b505050506040513d601f19601f82011682018060405250810190610ad19190611358565b905090565b6001546040517fb760faf90000000000000000000000000000000000000000000000000000000081523060048201526001600160a01b039091169063b760faf99034906024016000604051808303818588803b158015610a3057600080fd5b6000546001600160a01b03163314610b8f5760405162461bcd60e51b815260206004820181905260248201527f4f776e61626c653a2063616c6c6572206973206e6f7420746865206f776e65726044820152606401610329565b6001600160a01b038116610c0b5760405162461bcd60e51b815260206004820152602660248201527f4f776e61626c653a206e6577206f776e657220697320746865207a65726f206160448201527f64647265737300000000000000000000000000000000000000000000000000006064820152608401610329565b610c1481610c17565b50565b600080546001600160a01b0383811673ffffffffffffffffffffffffffffffffffffffff19831681178455604051919092169283917f8be0079c531659141344cd1fd0a4f28419497f9722a3daafe3b4186f6b6457e09190a35050565b6040517f19457468657265756d205369676e6564204d6573736167653a0a3332000000006020820152603c8101829052600090605c01610881565b6000806000610cbe8585610d32565b91509150610ccb81610da2565b509392505050565b6001546001600160a01b031633146105ef57600080fd5b60405162461bcd60e51b815260206004820152600d60248201527f6d757374206f76657272696465000000000000000000000000000000000000006044820152606401610329565b600080825160411415610d695760208301516040840151606085015160001a610d5d87828585610f5d565b94509450505050610d9b565b825160401415610d935760208301516040840151610d8886838361104a565b935093505050610d9b565b506000905060025b9250929050565b6000816004811115610db657610db6611371565b1415610dbf5750565b6001816004811115610dd357610dd3611371565b1415610e215760405162461bcd60e51b815260206004820152601860248201527f45434453413a20696e76616c6964207369676e617475726500000000000000006044820152606401610329565b6002816004811115610e3557610e35611371565b1415610e835760405162461bcd60e51b815260206004820152601f60248201527f45434453413a20696e76616c6964207369676e6174757265206c656e677468006044820152606401610329565b6003816004811115610e9757610e97611371565b1415610ef05760405162461bcd60e51b815260206004820152602260248201527f45434453413a20696e76616c6964207369676e6174757265202773272076616c604482015261756560f01b6064820152608401610329565b6004816004811115610f0457610f04611371565b1415610c145760405162461bcd60e51b815260206004820152602260248201527f45434453413a20696e76616c6964207369676e6174757265202776272076616c604482015261756560f01b6064820152608401610329565b6000807f7fffffffffffffffffffffffffffffff5d576e7357a4501ddfe92f46681b20a0831115610f945750600090506003611041565b8460ff16601b14158015610fac57508460ff16601c14155b15610fbd5750600090506004611041565b6040805160008082526020820180845289905260ff881692820192909252606081018690526080810185905260019060a0016020604051602081039080840390855afa158015611011573d6000803e3d6000fd5b5050604051601f1901519150506001600160a01b03811661103a57600060019250925050611041565b9150600090505b94509492505050565b6000807f7fffffffffffffffffffffffffffffffffffffffffffffffffffffffffffffff831660ff84901c601b0161108487828885610f5d565b935093505050935093915050565b63ffffffff81168114610c1457600080fd5b6000602082840312156110b657600080fd5b81356110c181611092565b9392505050565b6001600160a01b0381168114610c1457600080fd5b600080604083850312156110f057600080fd5b82356110fb816110c8565b946020939093013593505050565b60006020828403121561111b57600080fd5b81356110c1816110c8565b6000610180828403121561113957600080fd5b50919050565b60008060006060848603121561115457600080fd5b833567ffffffffffffffff81111561116b57600080fd5b61117786828701611126565b9660208601359650604090950135949350505050565b600060208083528351808285015260005b818110156111ba5785810183015185820160400152820161119e565b818111156111cc576000604083870101525b50601f01601f1916929092016040019392505050565b6000602082840312156111f457600080fd5b813567ffffffffffffffff81111561120b57600080fd5b61121784828501611126565b949350505050565b6000806000806060858703121561123557600080fd5b84356003811061124457600080fd5b9350602085013567ffffffffffffffff8082111561126157600080fd5b818701915087601f83011261127557600080fd5b81358181111561128457600080fd5b88602082850101111561129657600080fd5b95986020929092019750949560400135945092505050565b6000602082840312156112c057600080fd5b81516110c181611092565b600063ffffffff8083168185168083038211156112f857634e487b7160e01b600052601160045260246000fd5b01949350505050565b6000808335601e1984360301811261131857600080fd5b83018035915067ffffffffffffffff82111561133357600080fd5b602001915036819003821315610d9b57600080fd5b8183823760009101908152919050565b60006020828403121561136a57600080fd5b5051919050565b634e487b7160e01b600052602160045260246000fdfea2646970667358221220ed593b98aaa59875e47ea8d677d137b73cb2cc9a18d899ab24b16bb17c6112b864736f6c634300080c0033",
  "linkReferences": {},
  "deployedLinkReferences": {}
}